{
  "_format": "hh-sol-artifact-1",
  "contractName": "CryptoDevs",
  "sourceName": "contracts/CrypotoDevs.sol",
  "abi": [
    {
      "inputs": [
        {
          "internalType": "string",
          "name": "baseURI",
          "type": "string"
        },
        {
          "internalType": "address",
          "name": "whitelistContract",
          "type": "address"
        }
      ],
      "stateMutability": "nonpayable",
      "type": "constructor"
    },
    {
      "anonymous": false,
      "inputs": [
        {
          "indexed": true,
          "internalType": "address",
          "name": "owner",
          "type": "address"
        },
        {
          "indexed": true,
          "internalType": "address",
          "name": "approved",
          "type": "address"
        },
        {
          "indexed": true,
          "internalType": "uint256",
          "name": "tokenId",
          "type": "uint256"
        }
      ],
      "name": "Approval",
      "type": "event"
    },
    {
      "anonymous": false,
      "inputs": [
        {
          "indexed": true,
          "internalType": "address",
          "name": "owner",
          "type": "address"
        },
        {
          "indexed": true,
          "internalType": "address",
          "name": "operator",
          "type": "address"
        },
        {
          "indexed": false,
          "internalType": "bool",
          "name": "approved",
          "type": "bool"
        }
      ],
      "name": "ApprovalForAll",
      "type": "event"
    },
    {
      "anonymous": false,
      "inputs": [
        {
          "indexed": false,
          "internalType": "uint256",
          "name": "tokenIds",
          "type": "uint256"
        }
      ],
      "name": "CurrentTokenIds",
      "type": "event"
    },
    {
      "anonymous": false,
      "inputs": [
        {
          "indexed": true,
          "internalType": "address",
          "name": "previousOwner",
          "type": "address"
        },
        {
          "indexed": true,
          "internalType": "address",
          "name": "newOwner",
          "type": "address"
        }
      ],
      "name": "OwnershipTransferred",
      "type": "event"
    },
    {
      "anonymous": false,
      "inputs": [
        {
          "indexed": true,
          "internalType": "address",
          "name": "from",
          "type": "address"
        },
        {
          "indexed": true,
          "internalType": "address",
          "name": "to",
          "type": "address"
        },
        {
          "indexed": true,
          "internalType": "uint256",
          "name": "tokenId",
          "type": "uint256"
        }
      ],
      "name": "Transfer",
      "type": "event"
    },
    {
      "stateMutability": "payable",
      "type": "fallback"
    },
    {
      "inputs": [],
      "name": "_paused",
      "outputs": [
        {
          "internalType": "bool",
          "name": "",
          "type": "bool"
        }
      ],
      "stateMutability": "view",
      "type": "function"
    },
    {
      "inputs": [],
      "name": "_price",
      "outputs": [
        {
          "internalType": "uint256",
          "name": "",
          "type": "uint256"
        }
      ],
      "stateMutability": "view",
      "type": "function"
    },
    {
      "inputs": [
        {
          "internalType": "address",
          "name": "to",
          "type": "address"
        },
        {
          "internalType": "uint256",
          "name": "tokenId",
          "type": "uint256"
        }
      ],
      "name": "approve",
      "outputs": [],
      "stateMutability": "nonpayable",
      "type": "function"
    },
    {
      "inputs": [
        {
          "internalType": "address",
          "name": "owner",
          "type": "address"
        }
      ],
      "name": "balanceOf",
      "outputs": [
        {
          "internalType": "uint256",
          "name": "",
          "type": "uint256"
        }
      ],
      "stateMutability": "view",
      "type": "function"
    },
    {
      "inputs": [
        {
          "internalType": "uint256",
          "name": "tokenId",
          "type": "uint256"
        }
      ],
      "name": "getApproved",
      "outputs": [
        {
          "internalType": "address",
          "name": "",
          "type": "address"
        }
      ],
      "stateMutability": "view",
      "type": "function"
    },
    {
      "inputs": [
        {
          "internalType": "address",
          "name": "owner",
          "type": "address"
        },
        {
          "internalType": "address",
          "name": "operator",
          "type": "address"
        }
      ],
      "name": "isApprovedForAll",
      "outputs": [
        {
          "internalType": "bool",
          "name": "",
          "type": "bool"
        }
      ],
      "stateMutability": "view",
      "type": "function"
    },
    {
      "inputs": [],
      "name": "maxTokenIds",
      "outputs": [
        {
          "internalType": "uint256",
          "name": "",
          "type": "uint256"
        }
      ],
      "stateMutability": "view",
      "type": "function"
    },
    {
      "inputs": [],
      "name": "mint",
      "outputs": [],
      "stateMutability": "payable",
      "type": "function"
    },
    {
      "inputs": [],
      "name": "name",
      "outputs": [
        {
          "internalType": "string",
          "name": "",
          "type": "string"
        }
      ],
      "stateMutability": "view",
      "type": "function"
    },
    {
      "inputs": [],
      "name": "owner",
      "outputs": [
        {
          "internalType": "address",
          "name": "",
          "type": "address"
        }
      ],
      "stateMutability": "view",
      "type": "function"
    },
    {
      "inputs": [
        {
          "internalType": "uint256",
          "name": "tokenId",
          "type": "uint256"
        }
      ],
      "name": "ownerOf",
      "outputs": [
        {
          "internalType": "address",
          "name": "",
          "type": "address"
        }
      ],
      "stateMutability": "view",
      "type": "function"
    },
    {
      "inputs": [],
      "name": "presaleEnded",
      "outputs": [
        {
          "internalType": "uint256",
          "name": "",
          "type": "uint256"
        }
      ],
      "stateMutability": "view",
      "type": "function"
    },
    {
      "inputs": [],
      "name": "presaleMint",
      "outputs": [],
      "stateMutability": "payable",
      "type": "function"
    },
    {
      "inputs": [],
      "name": "presaleStarted",
      "outputs": [
        {
          "internalType": "bool",
          "name": "",
          "type": "bool"
        }
      ],
      "stateMutability": "view",
      "type": "function"
    },
    {
      "inputs": [],
      "name": "renounceOwnership",
      "outputs": [],
      "stateMutability": "nonpayable",
      "type": "function"
    },
    {
      "inputs": [
        {
          "internalType": "address",
          "name": "from",
          "type": "address"
        },
        {
          "internalType": "address",
          "name": "to",
          "type": "address"
        },
        {
          "internalType": "uint256",
          "name": "tokenId",
          "type": "uint256"
        }
      ],
      "name": "safeTransferFrom",
      "outputs": [],
      "stateMutability": "nonpayable",
      "type": "function"
    },
    {
      "inputs": [
        {
          "internalType": "address",
          "name": "from",
          "type": "address"
        },
        {
          "internalType": "address",
          "name": "to",
          "type": "address"
        },
        {
          "internalType": "uint256",
          "name": "tokenId",
          "type": "uint256"
        },
        {
          "internalType": "bytes",
          "name": "data",
          "type": "bytes"
        }
      ],
      "name": "safeTransferFrom",
      "outputs": [],
      "stateMutability": "nonpayable",
      "type": "function"
    },
    {
      "inputs": [
        {
          "internalType": "address",
          "name": "operator",
          "type": "address"
        },
        {
          "internalType": "bool",
          "name": "approved",
          "type": "bool"
        }
      ],
      "name": "setApprovalForAll",
      "outputs": [],
      "stateMutability": "nonpayable",
      "type": "function"
    },
    {
      "inputs": [
        {
          "internalType": "bool",
          "name": "val",
          "type": "bool"
        }
      ],
      "name": "setPaused",
      "outputs": [],
      "stateMutability": "nonpayable",
      "type": "function"
    },
    {
      "inputs": [],
      "name": "startPresale",
      "outputs": [],
      "stateMutability": "nonpayable",
      "type": "function"
    },
    {
      "inputs": [
        {
          "internalType": "bytes4",
          "name": "interfaceId",
          "type": "bytes4"
        }
      ],
      "name": "supportsInterface",
      "outputs": [
        {
          "internalType": "bool",
          "name": "",
          "type": "bool"
        }
      ],
      "stateMutability": "view",
      "type": "function"
    },
    {
      "inputs": [],
      "name": "symbol",
      "outputs": [
        {
          "internalType": "string",
          "name": "",
          "type": "string"
        }
      ],
      "stateMutability": "view",
      "type": "function"
    },
    {
      "inputs": [
        {
          "internalType": "uint256",
          "name": "index",
          "type": "uint256"
        }
      ],
      "name": "tokenByIndex",
      "outputs": [
        {
          "internalType": "uint256",
          "name": "",
          "type": "uint256"
        }
      ],
      "stateMutability": "view",
      "type": "function"
    },
    {
      "inputs": [],
      "name": "tokenIds",
      "outputs": [
        {
          "internalType": "uint256",
          "name": "",
          "type": "uint256"
        }
      ],
      "stateMutability": "view",
      "type": "function"
    },
    {
      "inputs": [
        {
          "internalType": "address",
          "name": "owner",
          "type": "address"
        },
        {
          "internalType": "uint256",
          "name": "index",
          "type": "uint256"
        }
      ],
      "name": "tokenOfOwnerByIndex",
      "outputs": [
        {
          "internalType": "uint256",
          "name": "",
          "type": "uint256"
        }
      ],
      "stateMutability": "view",
      "type": "function"
    },
    {
      "inputs": [
        {
          "internalType": "uint256",
          "name": "tokenId",
          "type": "uint256"
        }
      ],
      "name": "tokenURI",
      "outputs": [
        {
          "internalType": "string",
          "name": "",
          "type": "string"
        }
      ],
      "stateMutability": "view",
      "type": "function"
    },
    {
      "inputs": [],
      "name": "totalSupply",
      "outputs": [
        {
          "internalType": "uint256",
          "name": "",
          "type": "uint256"
        }
      ],
      "stateMutability": "view",
      "type": "function"
    },
    {
      "inputs": [
        {
          "internalType": "address",
          "name": "from",
          "type": "address"
        },
        {
          "internalType": "address",
          "name": "to",
          "type": "address"
        },
        {
          "internalType": "uint256",
          "name": "tokenId",
          "type": "uint256"
        }
      ],
      "name": "transferFrom",
      "outputs": [],
      "stateMutability": "nonpayable",
      "type": "function"
    },
    {
      "inputs": [
        {
          "internalType": "address",
          "name": "newOwner",
          "type": "address"
        }
      ],
      "name": "transferOwnership",
      "outputs": [],
      "stateMutability": "nonpayable",
      "type": "function"
    },
    {
      "inputs": [],
      "name": "withdraw",
      "outputs": [],
      "stateMutability": "nonpayable",
      "type": "function"
    },
    {
      "stateMutability": "payable",
      "type": "receive"
    }
  ],
  "bytecode": "0x6080604052662386f26fc10000600c556014600e553480156200002157600080fd5b50604051620048a5380380620048a583398181016040528101906200004791906200041a565b6040518060400160405280600b81526020017f43727970746f20446576730000000000000000000000000000000000000000008152506040518060400160405280600281526020017f43440000000000000000000000000000000000000000000000000000000000008152508160009081620000c49190620006cb565b508060019081620000d69190620006cb565b505050620000f9620000ed6200015460201b60201c565b6200015c60201b60201c565b81600b90816200010a9190620006cb565b5080601060006101000a81548173ffffffffffffffffffffffffffffffffffffffff021916908373ffffffffffffffffffffffffffffffffffffffff1602179055505050620007b2565b600033905090565b6000600a60009054906101000a900473ffffffffffffffffffffffffffffffffffffffff16905081600a60006101000a81548173ffffffffffffffffffffffffffffffffffffffff021916908373ffffffffffffffffffffffffffffffffffffffff1602179055508173ffffffffffffffffffffffffffffffffffffffff168173ffffffffffffffffffffffffffffffffffffffff167f8be0079c531659141344cd1fd0a4f28419497f9722a3daafe3b4186f6b6457e060405160405180910390a35050565b6000604051905090565b600080fd5b600080fd5b600080fd5b600080fd5b6000601f19601f8301169050919050565b7f4e487b7100000000000000000000000000000000000000000000000000000000600052604160045260246000fd5b6200028b8262000240565b810181811067ffffffffffffffff82111715620002ad57620002ac62000251565b5b80604052505050565b6000620002c262000222565b9050620002d0828262000280565b919050565b600067ffffffffffffffff821115620002f357620002f262000251565b5b620002fe8262000240565b9050602081019050919050565b60005b838110156200032b5780820151818401526020810190506200030e565b60008484015250505050565b60006200034e6200034884620002d5565b620002b6565b9050828152602081018484840111156200036d576200036c6200023b565b5b6200037a8482856200030b565b509392505050565b600082601f8301126200039a576200039962000236565b5b8151620003ac84826020860162000337565b91505092915050565b600073ffffffffffffffffffffffffffffffffffffffff82169050919050565b6000620003e282620003b5565b9050919050565b620003f481620003d5565b81146200040057600080fd5b50565b6000815190506200041481620003e9565b92915050565b600080604083850312156200043457620004336200022c565b5b600083015167ffffffffffffffff81111562000455576200045462000231565b5b620004638582860162000382565b9250506020620004768582860162000403565b9150509250929050565b600081519050919050565b7f4e487b7100000000000000000000000000000000000000000000000000000000600052602260045260246000fd5b60006002820490506001821680620004d357607f821691505b602082108103620004e957620004e86200048b565b5b50919050565b60008190508160005260206000209050919050565b60006020601f8301049050919050565b600082821b905092915050565b600060088302620005537fffffffffffffffffffffffffffffffffffffffffffffffffffffffffffffffff8262000514565b6200055f868362000514565b95508019841693508086168417925050509392505050565b6000819050919050565b6000819050919050565b6000620005ac620005a6620005a08462000577565b62000581565b62000577565b9050919050565b6000819050919050565b620005c8836200058b565b620005e0620005d782620005b3565b84845462000521565b825550505050565b600090565b620005f7620005e8565b62000604818484620005bd565b505050565b5b818110156200062c5762000620600082620005ed565b6001810190506200060a565b5050565b601f8211156200067b576200064581620004ef565b620006508462000504565b8101602085101562000660578190505b620006786200066f8562000504565b83018262000609565b50505b505050565b600082821c905092915050565b6000620006a06000198460080262000680565b1980831691505092915050565b6000620006bb83836200068d565b9150826002028217905092915050565b620006d68262000480565b67ffffffffffffffff811115620006f257620006f162000251565b5b620006fe8254620004ba565b6200070b82828562000630565b600060209050601f8311600181146200074357600084156200072e578287015190505b6200073a8582620006ad565b865550620007aa565b601f1984166200075386620004ef565b60005b828110156200077d5784890151825560018201915060208501945060208101905062000756565b868310156200079d578489015162000799601f8916826200068d565b8355505b6001600288020188555050505b505050505050565b6140e380620007c26000396000f3fe6080604052600436106101d15760003560e01c80634f6ccce7116100f75780638da5cb5b11610095578063c87b56dd11610064578063c87b56dd1461061a578063e580b2b014610657578063e985e9c514610682578063f2fde38b146106bf576101d8565b80638da5cb5b1461057257806395d89b411461059d578063a22cb465146105c8578063b88d4fde146105f1576101d8565b80636352211e116100d15780636352211e146104b657806370a08231146104f3578063714cff5614610530578063715018a61461055b576101d8565b80634f6ccce71461044457806359533d6c146104815780635f7696211461048b576101d8565b806316c38b3c1161016f57806323b872dd1161013e57806323b872dd1461039e5780632f745c59146103c75780633ccfd60b1461040457806342842e0e1461041b576101d8565b806316c38b3c146102f457806316c61ccc1461031d57806318160ddd14610348578063235b6ea114610373576101d8565b806306fdde03116101ab57806306fdde0314610259578063081812fc14610284578063095ea7b3146102c15780631249c58b146102ea576101d8565b806301ffc9a7146101da57806304549d6f1461021757806304c98b2b14610242576101d8565b366101d857005b005b3480156101e657600080fd5b5061020160048036038101906101fc9190612b16565b6106e8565b60405161020e9190612b5e565b60405180910390f35b34801561022357600080fd5b5061022c610762565b6040516102399190612b5e565b60405180910390f35b34801561024e57600080fd5b50610257610775565b005b34801561026557600080fd5b5061026e6107ae565b60405161027b9190612c09565b60405180910390f35b34801561029057600080fd5b506102ab60048036038101906102a69190612c61565b610840565b6040516102b89190612ccf565b60405180910390f35b3480156102cd57600080fd5b506102e860048036038101906102e39190612d16565b610886565b005b6102f261099d565b005b34801561030057600080fd5b5061031b60048036038101906103169190612d82565b610b42565b005b34801561032957600080fd5b50610332610b67565b60405161033f9190612b5e565b60405180910390f35b34801561035457600080fd5b5061035d610b7a565b60405161036a9190612dbe565b60405180910390f35b34801561037f57600080fd5b50610388610b87565b6040516103959190612dbe565b60405180910390f35b3480156103aa57600080fd5b506103c560048036038101906103c09190612dd9565b610b8d565b005b3480156103d357600080fd5b506103ee60048036038101906103e99190612d16565b610bed565b6040516103fb9190612dbe565b60405180910390f35b34801561041057600080fd5b50610419610c92565b005b34801561042757600080fd5b50610442600480360381019061043d9190612dd9565b610d5c565b005b34801561045057600080fd5b5061046b60048036038101906104669190612c61565b610d7c565b6040516104789190612dbe565b60405180910390f35b610489610ded565b005b34801561049757600080fd5b506104a06111c1565b6040516104ad9190612dbe565b60405180910390f35b3480156104c257600080fd5b506104dd60048036038101906104d89190612c61565b6111c7565b6040516104ea9190612ccf565b60405180910390f35b3480156104ff57600080fd5b5061051a60048036038101906105159190612e2c565b61124d565b6040516105279190612dbe565b60405180910390f35b34801561053c57600080fd5b50610545611304565b6040516105529190612dbe565b60405180910390f35b34801561056757600080fd5b5061057061130a565b005b34801561057e57600080fd5b5061058761131e565b6040516105949190612ccf565b60405180910390f35b3480156105a957600080fd5b506105b2611348565b6040516105bf9190612c09565b60405180910390f35b3480156105d457600080fd5b506105ef60048036038101906105ea9190612e59565b6113da565b005b3480156105fd57600080fd5b5061061860048036038101906106139190612fce565b6113f0565b005b34801561062657600080fd5b50610641600480360381019061063c9190612c61565b611452565b60405161064e9190612c09565b60405180910390f35b34801561066357600080fd5b5061066c6114ba565b6040516106799190612dbe565b60405180910390f35b34801561068e57600080fd5b506106a960048036038101906106a49190613051565b6114c0565b6040516106b69190612b5e565b60405180910390f35b3480156106cb57600080fd5b506106e660048036038101906106e19190612e2c565b611554565b005b60007f780e9d63000000000000000000000000000000000000000000000000000000007bffffffffffffffffffffffffffffffffffffffffffffffffffffffff1916827bffffffffffffffffffffffffffffffffffffffffffffffffffffffff1916148061075b575061075a826115d7565b5b9050919050565b601060149054906101000a900460ff1681565b61077d6116b9565b6001601060146101000a81548160ff02191690831515021790555061012c426107a691906130c0565b601181905550565b6060600080546107bd90613123565b80601f01602080910402602001604051908101604052809291908181526020018280546107e990613123565b80156108365780601f1061080b57610100808354040283529160200191610836565b820191906000526020600020905b81548152906001019060200180831161081957829003601f168201915b5050505050905090565b600061084b82611737565b6004600083815260200190815260200160002060009054906101000a900473ffffffffffffffffffffffffffffffffffffffff169050919050565b6000610891826111c7565b90508073ffffffffffffffffffffffffffffffffffffffff168373ffffffffffffffffffffffffffffffffffffffff1603610901576040517f08c379a00000000000000000000000000000000000000000000000000000000081526004016108f8906131c6565b60405180910390fd5b8073ffffffffffffffffffffffffffffffffffffffff16610920611782565b73ffffffffffffffffffffffffffffffffffffffff16148061094f575061094e81610949611782565b6114c0565b5b61098e576040517f08c379a000000000000000000000000000000000000000000000000000000000815260040161098590613258565b60405180910390fd5b610998838361178a565b505050565b600d60009054906101000a900460ff16156109ed576040517f08c379a00000000000000000000000000000000000000000000000000000000081526004016109e4906132c4565b60405180910390fd5b601060149054906101000a900460ff168015610a0b57506011544210155b610a4a576040517f08c379a0000000000000000000000000000000000000000000000000000000008152600401610a4190613330565b60405180910390fd5b600e54600f5410610a90576040517f08c379a0000000000000000000000000000000000000000000000000000000008152600401610a87906133c2565b60405180910390fd5b600c54341015610ad5576040517f08c379a0000000000000000000000000000000000000000000000000000000008152600401610acc9061342e565b60405180910390fd5b6001600f6000828254610ae891906130c0565b92505081905550610afb33600f54611843565b610b06600f54611452565b507f72fa0e5e6728d15f0dd23110bfd84b7096e28b7b684a482f8685975d85b2a761600f54604051610b389190612dbe565b60405180910390a1565b610b4a6116b9565b80600d60006101000a81548160ff02191690831515021790555050565b600d60009054906101000a900460ff1681565b6000600880549050905090565b600c5481565b610b9e610b98611782565b82611861565b610bdd576040517f08c379a0000000000000000000000000000000000000000000000000000000008152600401610bd4906134c0565b60405180910390fd5b610be88383836118f6565b505050565b6000610bf88361124d565b8210610c39576040517f08c379a0000000000000000000000000000000000000000000000000000000008152600401610c3090613552565b60405180910390fd5b600660008473ffffffffffffffffffffffffffffffffffffffff1673ffffffffffffffffffffffffffffffffffffffff168152602001908152602001600020600083815260200190815260200160002054905092915050565b610c9a6116b9565b6000610ca461131e565b9050600047905060008273ffffffffffffffffffffffffffffffffffffffff1682604051610cd1906135a3565b60006040518083038185875af1925050503d8060008114610d0e576040519150601f19603f3d011682016040523d82523d6000602084013e610d13565b606091505b5050905080610d57576040517f08c379a0000000000000000000000000000000000000000000000000000000008152600401610d4e90613604565b60405180910390fd5b505050565b610d77838383604051806020016040528060008152506113f0565b505050565b6000610d86610b7a565b8210610dc7576040517f08c379a0000000000000000000000000000000000000000000000000000000008152600401610dbe90613696565b60405180910390fd5b60088281548110610ddb57610dda6136b6565b5b90600052602060002001549050919050565b600d60009054906101000a900460ff1615610e3d576040517f08c379a0000000000000000000000000000000000000000000000000000000008152600401610e34906132c4565b60405180910390fd5b601060149054906101000a900460ff168015610e5a575060115442105b610e99576040517f08c379a0000000000000000000000000000000000000000000000000000000008152600401610e9090613731565b60405180910390fd5b601060009054906101000a900473ffffffffffffffffffffffffffffffffffffffff1673ffffffffffffffffffffffffffffffffffffffff166306c933d8336040518263ffffffff1660e01b8152600401610ef49190612ccf565b602060405180830381865afa925050508015610f2e57506040513d601f19601f82011682018060405250810190610f2b9190613766565b60015b610fac57610f3a6137a0565b806308c379a003610fa05750610f4e6137c2565b80610f595750610fa2565b6000610f9a576040517f08c379a0000000000000000000000000000000000000000000000000000000008152600401610f919061389e565b60405180910390fd5b506111bf565b505b3d6000803e3d6000fd5b80610fec576040517f08c379a0000000000000000000000000000000000000000000000000000000008152600401610fe39061389e565b60405180910390fd5b50601060009054906101000a900473ffffffffffffffffffffffffffffffffffffffff1673ffffffffffffffffffffffffffffffffffffffff166306c933d8336040518263ffffffff1660e01b81526004016110489190612ccf565b602060405180830381865afa158015611065573d6000803e3d6000fd5b505050506040513d601f19601f820116820180604052508101906110899190613766565b6110c8576040517f08c379a00000000000000000000000000000000000000000000000000000000081526004016110bf9061389e565b60405180910390fd5b600e54600f541061110e576040517f08c379a000000000000000000000000000000000000000000000000000000000815260040161110590613930565b60405180910390fd5b600c54341015611153576040517f08c379a000000000000000000000000000000000000000000000000000000000815260040161114a9061342e565b60405180910390fd5b6001600f600082825461116691906130c0565b9250508190555061117933600f54611843565b611184600f54611452565b507f72fa0e5e6728d15f0dd23110bfd84b7096e28b7b684a482f8685975d85b2a761600f546040516111b69190612dbe565b60405180910390a15b565b600e5481565b6000806111d383611bef565b9050600073ffffffffffffffffffffffffffffffffffffffff168173ffffffffffffffffffffffffffffffffffffffff1603611244576040517f08c379a000000000000000000000000000000000000000000000000000000000815260040161123b9061399c565b60405180910390fd5b80915050919050565b60008073ffffffffffffffffffffffffffffffffffffffff168273ffffffffffffffffffffffffffffffffffffffff16036112bd576040517f08c379a00000000000000000000000000000000000000000000000000000000081526004016112b490613a2e565b60405180910390fd5b600360008373ffffffffffffffffffffffffffffffffffffffff1673ffffffffffffffffffffffffffffffffffffffff168152602001908152602001600020549050919050565b600f5481565b6113126116b9565b61131c6000611c2c565b565b6000600a60009054906101000a900473ffffffffffffffffffffffffffffffffffffffff16905090565b60606001805461135790613123565b80601f016020809104026020016040519081016040528092919081815260200182805461138390613123565b80156113d05780601f106113a5576101008083540402835291602001916113d0565b820191906000526020600020905b8154815290600101906020018083116113b357829003601f168201915b5050505050905090565b6113ec6113e5611782565b8383611cf2565b5050565b6114016113fb611782565b83611861565b611440576040517f08c379a0000000000000000000000000000000000000000000000000000000008152600401611437906134c0565b60405180910390fd5b61144c84848484611e5e565b50505050565b606061145d82611737565b6000611467611eba565b9050600081511161148757604051806020016040528060008152506114b2565b8061149184611f4c565b6040516020016114a2929190613a8a565b6040516020818303038152906040525b915050919050565b60115481565b6000600560008473ffffffffffffffffffffffffffffffffffffffff1673ffffffffffffffffffffffffffffffffffffffff16815260200190815260200160002060008373ffffffffffffffffffffffffffffffffffffffff1673ffffffffffffffffffffffffffffffffffffffff16815260200190815260200160002060009054906101000a900460ff16905092915050565b61155c6116b9565b600073ffffffffffffffffffffffffffffffffffffffff168173ffffffffffffffffffffffffffffffffffffffff16036115cb576040517f08c379a00000000000000000000000000000000000000000000000000000000081526004016115c290613b20565b60405180910390fd5b6115d481611c2c565b50565b60007f80ac58cd000000000000000000000000000000000000000000000000000000007bffffffffffffffffffffffffffffffffffffffffffffffffffffffff1916827bffffffffffffffffffffffffffffffffffffffffffffffffffffffff191614806116a257507f5b5e139f000000000000000000000000000000000000000000000000000000007bffffffffffffffffffffffffffffffffffffffffffffffffffffffff1916827bffffffffffffffffffffffffffffffffffffffffffffffffffffffff1916145b806116b257506116b18261201a565b5b9050919050565b6116c1611782565b73ffffffffffffffffffffffffffffffffffffffff166116df61131e565b73ffffffffffffffffffffffffffffffffffffffff1614611735576040517f08c379a000000000000000000000000000000000000000000000000000000000815260040161172c90613b8c565b60405180910390fd5b565b61174081612084565b61177f576040517f08c379a00000000000000000000000000000000000000000000000000000000081526004016117769061399c565b60405180910390fd5b50565b600033905090565b816004600083815260200190815260200160002060006101000a81548173ffffffffffffffffffffffffffffffffffffffff021916908373ffffffffffffffffffffffffffffffffffffffff160217905550808273ffffffffffffffffffffffffffffffffffffffff166117fd836111c7565b73ffffffffffffffffffffffffffffffffffffffff167f8c5be1e5ebec7d5bd14f71427d1e84f3dd0314c0f7b2291e5b200ac8c7c3b92560405160405180910390a45050565b61185d8282604051806020016040528060008152506120c5565b5050565b60008061186d836111c7565b90508073ffffffffffffffffffffffffffffffffffffffff168473ffffffffffffffffffffffffffffffffffffffff1614806118af57506118ae81856114c0565b5b806118ed57508373ffffffffffffffffffffffffffffffffffffffff166118d584610840565b73ffffffffffffffffffffffffffffffffffffffff16145b91505092915050565b8273ffffffffffffffffffffffffffffffffffffffff16611916826111c7565b73ffffffffffffffffffffffffffffffffffffffff161461196c576040517f08c379a000000000000000000000000000000000000000000000000000000000815260040161196390613c1e565b60405180910390fd5b600073ffffffffffffffffffffffffffffffffffffffff168273ffffffffffffffffffffffffffffffffffffffff16036119db576040517f08c379a00000000000000000000000000000000000000000000000000000000081526004016119d290613cb0565b60405180910390fd5b6119e88383836001612120565b8273ffffffffffffffffffffffffffffffffffffffff16611a08826111c7565b73ffffffffffffffffffffffffffffffffffffffff1614611a5e576040517f08c379a0000000000000000000000000000000000000000000000000000000008152600401611a5590613c1e565b60405180910390fd5b6004600082815260200190815260200160002060006101000a81549073ffffffffffffffffffffffffffffffffffffffff02191690556001600360008573ffffffffffffffffffffffffffffffffffffffff1673ffffffffffffffffffffffffffffffffffffffff168152602001908152602001600020600082825403925050819055506001600360008473ffffffffffffffffffffffffffffffffffffffff1673ffffffffffffffffffffffffffffffffffffffff16815260200190815260200160002060008282540192505081905550816002600083815260200190815260200160002060006101000a81548173ffffffffffffffffffffffffffffffffffffffff021916908373ffffffffffffffffffffffffffffffffffffffff160217905550808273ffffffffffffffffffffffffffffffffffffffff168473ffffffffffffffffffffffffffffffffffffffff167fddf252ad1be2c89b69c2b068fc378daa952ba7f163c4a11628f55a4df523b3ef60405160405180910390a4611bea838383600161227e565b505050565b60006002600083815260200190815260200160002060009054906101000a900473ffffffffffffffffffffffffffffffffffffffff169050919050565b6000600a60009054906101000a900473ffffffffffffffffffffffffffffffffffffffff16905081600a60006101000a81548173ffffffffffffffffffffffffffffffffffffffff021916908373ffffffffffffffffffffffffffffffffffffffff1602179055508173ffffffffffffffffffffffffffffffffffffffff168173ffffffffffffffffffffffffffffffffffffffff167f8be0079c531659141344cd1fd0a4f28419497f9722a3daafe3b4186f6b6457e060405160405180910390a35050565b8173ffffffffffffffffffffffffffffffffffffffff168373ffffffffffffffffffffffffffffffffffffffff1603611d60576040517f08c379a0000000000000000000000000000000000000000000000000000000008152600401611d5790613d1c565b60405180910390fd5b80600560008573ffffffffffffffffffffffffffffffffffffffff1673ffffffffffffffffffffffffffffffffffffffff16815260200190815260200160002060008473ffffffffffffffffffffffffffffffffffffffff1673ffffffffffffffffffffffffffffffffffffffff16815260200190815260200160002060006101000a81548160ff0219169083151502179055508173ffffffffffffffffffffffffffffffffffffffff168373ffffffffffffffffffffffffffffffffffffffff167f17307eab39ab6107e8899845ad3d59bd9653f200f220920489ca2b5937696c3183604051611e519190612b5e565b60405180910390a3505050565b611e698484846118f6565b611e7584848484612284565b611eb4576040517f08c379a0000000000000000000000000000000000000000000000000000000008152600401611eab90613dae565b60405180910390fd5b50505050565b6060600b8054611ec990613123565b80601f0160208091040260200160405190810160405280929190818152602001828054611ef590613123565b8015611f425780601f10611f1757610100808354040283529160200191611f42565b820191906000526020600020905b815481529060010190602001808311611f2557829003601f168201915b5050505050905090565b606060006001611f5b8461240b565b01905060008167ffffffffffffffff811115611f7a57611f79612ea3565b5b6040519080825280601f01601f191660200182016040528015611fac5781602001600182028036833780820191505090505b509050600082602001820190505b60011561200f578080600190039150507f3031323334353637383961626364656600000000000000000000000000000000600a86061a8153600a858161200357612002613dce565b5b04945060008503611fba575b819350505050919050565b60007f01ffc9a7000000000000000000000000000000000000000000000000000000007bffffffffffffffffffffffffffffffffffffffffffffffffffffffff1916827bffffffffffffffffffffffffffffffffffffffffffffffffffffffff1916149050919050565b60008073ffffffffffffffffffffffffffffffffffffffff166120a683611bef565b73ffffffffffffffffffffffffffffffffffffffff1614159050919050565b6120cf838361255e565b6120dc6000848484612284565b61211b576040517f08c379a000000000000000000000000000000000000000000000000000000000815260040161211290613dae565b60405180910390fd5b505050565b61212c8484848461277b565b6001811115612170576040517f08c379a000000000000000000000000000000000000000000000000000000000815260040161216790613e6f565b60405180910390fd5b6000829050600073ffffffffffffffffffffffffffffffffffffffff168573ffffffffffffffffffffffffffffffffffffffff16036121b7576121b281612781565b6121f6565b8373ffffffffffffffffffffffffffffffffffffffff168573ffffffffffffffffffffffffffffffffffffffff16146121f5576121f485826127ca565b5b5b600073ffffffffffffffffffffffffffffffffffffffff168473ffffffffffffffffffffffffffffffffffffffff16036122385761223381612937565b612277565b8473ffffffffffffffffffffffffffffffffffffffff168473ffffffffffffffffffffffffffffffffffffffff1614612276576122758482612a08565b5b5b5050505050565b50505050565b60006122a58473ffffffffffffffffffffffffffffffffffffffff16612a87565b156123fe578373ffffffffffffffffffffffffffffffffffffffff1663150b7a026122ce611782565b8786866040518563ffffffff1660e01b81526004016122f09493929190613ee4565b6020604051808303816000875af192505050801561232c57506040513d601f19601f820116820180604052508101906123299190613f45565b60015b6123ae573d806000811461235c576040519150601f19603f3d011682016040523d82523d6000602084013e612361565b606091505b5060008151036123a6576040517f08c379a000000000000000000000000000000000000000000000000000000000815260040161239d90613dae565b60405180910390fd5b805181602001fd5b63150b7a0260e01b7bffffffffffffffffffffffffffffffffffffffffffffffffffffffff1916817bffffffffffffffffffffffffffffffffffffffffffffffffffffffff191614915050612403565b600190505b949350505050565b600080600090507a184f03e93ff9f4daa797ed6e38ed64bf6a1f0100000000000000008310612469577a184f03e93ff9f4daa797ed6e38ed64bf6a1f010000000000000000838161245f5761245e613dce565b5b0492506040810190505b6d04ee2d6d415b85acef810000000083106124a6576d04ee2d6d415b85acef8100000000838161249c5761249b613dce565b5b0492506020810190505b662386f26fc1000083106124d557662386f26fc1000083816124cb576124ca613dce565b5b0492506010810190505b6305f5e10083106124fe576305f5e10083816124f4576124f3613dce565b5b0492506008810190505b612710831061252357612710838161251957612518613dce565b5b0492506004810190505b60648310612546576064838161253c5761253b613dce565b5b0492506002810190505b600a8310612555576001810190505b80915050919050565b600073ffffffffffffffffffffffffffffffffffffffff168273ffffffffffffffffffffffffffffffffffffffff16036125cd576040517f08c379a00000000000000000000000000000000000000000000000000000000081526004016125c490613fbe565b60405180910390fd5b6125d681612084565b15612616576040517f08c379a000000000000000000000000000000000000000000000000000000000815260040161260d9061402a565b60405180910390fd5b612624600083836001612120565b61262d81612084565b1561266d576040517f08c379a00000000000000000000000000000000000000000000000000000000081526004016126649061402a565b60405180910390fd5b6001600360008473ffffffffffffffffffffffffffffffffffffffff1673ffffffffffffffffffffffffffffffffffffffff16815260200190815260200160002060008282540192505081905550816002600083815260200190815260200160002060006101000a81548173ffffffffffffffffffffffffffffffffffffffff021916908373ffffffffffffffffffffffffffffffffffffffff160217905550808273ffffffffffffffffffffffffffffffffffffffff16600073ffffffffffffffffffffffffffffffffffffffff167fddf252ad1be2c89b69c2b068fc378daa952ba7f163c4a11628f55a4df523b3ef60405160405180910390a461277760008383600161227e565b5050565b50505050565b6008805490506009600083815260200190815260200160002081905550600881908060018154018082558091505060019003906000526020600020016000909190919091505550565b600060016127d78461124d565b6127e1919061404a565b90506000600760008481526020019081526020016000205490508181146128c6576000600660008673ffffffffffffffffffffffffffffffffffffffff1673ffffffffffffffffffffffffffffffffffffffff168152602001908152602001600020600084815260200190815260200160002054905080600660008773ffffffffffffffffffffffffffffffffffffffff1673ffffffffffffffffffffffffffffffffffffffff168152602001908152602001600020600084815260200190815260200160002081905550816007600083815260200190815260200160002081905550505b6007600084815260200190815260200160002060009055600660008573ffffffffffffffffffffffffffffffffffffffff1673ffffffffffffffffffffffffffffffffffffffff16815260200190815260200160002060008381526020019081526020016000206000905550505050565b6000600160088054905061294b919061404a565b905060006009600084815260200190815260200160002054905060006008838154811061297b5761297a6136b6565b5b90600052602060002001549050806008838154811061299d5761299c6136b6565b5b9060005260206000200181905550816009600083815260200190815260200160002081905550600960008581526020019081526020016000206000905560088054806129ec576129eb61407e565b5b6001900381819060005260206000200160009055905550505050565b6000612a138361124d565b905081600660008573ffffffffffffffffffffffffffffffffffffffff1673ffffffffffffffffffffffffffffffffffffffff168152602001908152602001600020600083815260200190815260200160002081905550806007600084815260200190815260200160002081905550505050565b6000808273ffffffffffffffffffffffffffffffffffffffff163b119050919050565b6000604051905090565b600080fd5b600080fd5b60007fffffffff0000000000000000000000000000000000000000000000000000000082169050919050565b612af381612abe565b8114612afe57600080fd5b50565b600081359050612b1081612aea565b92915050565b600060208284031215612b2c57612b2b612ab4565b5b6000612b3a84828501612b01565b91505092915050565b60008115159050919050565b612b5881612b43565b82525050565b6000602082019050612b736000830184612b4f565b92915050565b600081519050919050565b600082825260208201905092915050565b60005b83811015612bb3578082015181840152602081019050612b98565b60008484015250505050565b6000601f19601f8301169050919050565b6000612bdb82612b79565b612be58185612b84565b9350612bf5818560208601612b95565b612bfe81612bbf565b840191505092915050565b60006020820190508181036000830152612c238184612bd0565b905092915050565b6000819050919050565b612c3e81612c2b565b8114612c4957600080fd5b50565b600081359050612c5b81612c35565b92915050565b600060208284031215612c7757612c76612ab4565b5b6000612c8584828501612c4c565b91505092915050565b600073ffffffffffffffffffffffffffffffffffffffff82169050919050565b6000612cb982612c8e565b9050919050565b612cc981612cae565b82525050565b6000602082019050612ce46000830184612cc0565b92915050565b612cf381612cae565b8114612cfe57600080fd5b50565b600081359050612d1081612cea565b92915050565b60008060408385031215612d2d57612d2c612ab4565b5b6000612d3b85828601612d01565b9250506020612d4c85828601612c4c565b9150509250929050565b612d5f81612b43565b8114612d6a57600080fd5b50565b600081359050612d7c81612d56565b92915050565b600060208284031215612d9857612d97612ab4565b5b6000612da684828501612d6d565b91505092915050565b612db881612c2b565b82525050565b6000602082019050612dd36000830184612daf565b92915050565b600080600060608486031215612df257612df1612ab4565b5b6000612e0086828701612d01565b9350506020612e1186828701612d01565b9250506040612e2286828701612c4c565b9150509250925092565b600060208284031215612e4257612e41612ab4565b5b6000612e5084828501612d01565b91505092915050565b60008060408385031215612e7057612e6f612ab4565b5b6000612e7e85828601612d01565b9250506020612e8f85828601612d6d565b9150509250929050565b600080fd5b600080fd5b7f4e487b7100000000000000000000000000000000000000000000000000000000600052604160045260246000fd5b612edb82612bbf565b810181811067ffffffffffffffff82111715612efa57612ef9612ea3565b5b80604052505050565b6000612f0d612aaa565b9050612f198282612ed2565b919050565b600067ffffffffffffffff821115612f3957612f38612ea3565b5b612f4282612bbf565b9050602081019050919050565b82818337600083830152505050565b6000612f71612f6c84612f1e565b612f03565b905082815260208101848484011115612f8d57612f8c612e9e565b5b612f98848285612f4f565b509392505050565b600082601f830112612fb557612fb4612e99565b5b8135612fc5848260208601612f5e565b91505092915050565b60008060008060808587031215612fe857612fe7612ab4565b5b6000612ff687828801612d01565b945050602061300787828801612d01565b935050604061301887828801612c4c565b925050606085013567ffffffffffffffff81111561303957613038612ab9565b5b61304587828801612fa0565b91505092959194509250565b6000806040838503121561306857613067612ab4565b5b600061307685828601612d01565b925050602061308785828601612d01565b9150509250929050565b7f4e487b7100000000000000000000000000000000000000000000000000000000600052601160045260246000fd5b60006130cb82612c2b565b91506130d683612c2b565b92508282019050808211156130ee576130ed613091565b5b92915050565b7f4e487b7100000000000000000000000000000000000000000000000000000000600052602260045260246000fd5b6000600282049050600182168061313b57607f821691505b60208210810361314e5761314d6130f4565b5b50919050565b7f4552433732313a20617070726f76616c20746f2063757272656e74206f776e6560008201527f7200000000000000000000000000000000000000000000000000000000000000602082015250565b60006131b0602183612b84565b91506131bb82613154565b604082019050919050565b600060208201905081810360008301526131df816131a3565b9050919050565b7f4552433732313a20617070726f76652063616c6c6572206973206e6f7420746f60008201527f6b656e206f776e6572206f7220617070726f76656420666f7220616c6c000000602082015250565b6000613242603d83612b84565b915061324d826131e6565b604082019050919050565b6000602082019050818103600083015261327181613235565b9050919050565b7f436f6e74726163742063757272656e746c792070617573656400000000000000600082015250565b60006132ae601983612b84565b91506132b982613278565b602082019050919050565b600060208201905081810360008301526132dd816132a1565b9050919050565b7f50726573616c6520686173206e6f7420656e6465642079657400000000000000600082015250565b600061331a601983612b84565b9150613325826132e4565b602082019050919050565b600060208201905081810360008301526133498161330d565b9050919050565b7f457863656564206d6178696d756d2043727970746f204465767320737570706c60008201527f7900000000000000000000000000000000000000000000000000000000000000602082015250565b60006133ac602183612b84565b91506133b782613350565b604082019050919050565b600060208201905081810360008301526133db8161339f565b9050919050565b7f45746865722073656e74206973206e6f7420636f727265637400000000000000600082015250565b6000613418601983612b84565b9150613423826133e2565b602082019050919050565b600060208201905081810360008301526134478161340b565b9050919050565b7f4552433732313a2063616c6c6572206973206e6f7420746f6b656e206f776e6560008201527f72206f7220617070726f76656400000000000000000000000000000000000000602082015250565b60006134aa602d83612b84565b91506134b58261344e565b604082019050919050565b600060208201905081810360008301526134d98161349d565b9050919050565b7f455243373231456e756d657261626c653a206f776e657220696e646578206f7560008201527f74206f6620626f756e6473000000000000000000000000000000000000000000602082015250565b600061353c602b83612b84565b9150613547826134e0565b604082019050919050565b6000602082019050818103600083015261356b8161352f565b9050919050565b600081905092915050565b50565b600061358d600083613572565b91506135988261357d565b600082019050919050565b60006135ae82613580565b9150819050919050565b7f4661696c656420746f2073656e64204574686572000000000000000000000000600082015250565b60006135ee601483612b84565b91506135f9826135b8565b602082019050919050565b6000602082019050818103600083015261361d816135e1565b9050919050565b7f455243373231456e756d657261626c653a20676c6f62616c20696e646578206f60008201527f7574206f6620626f756e64730000000000000000000000000000000000000000602082015250565b6000613680602c83612b84565b915061368b82613624565b604082019050919050565b600060208201905081810360008301526136af81613673565b9050919050565b7f4e487b7100000000000000000000000000000000000000000000000000000000600052603260045260246000fd5b7f50726573616c65206973206e6f742072756e6e696e6700000000000000000000600082015250565b600061371b601683612b84565b9150613726826136e5565b602082019050919050565b6000602082019050818103600083015261374a8161370e565b9050919050565b60008151905061376081612d56565b92915050565b60006020828403121561377c5761377b612ab4565b5b600061378a84828501613751565b91505092915050565b60008160e01c9050919050565b600060033d11156137bf5760046000803e6137bc600051613793565b90505b90565b600060443d1061384f576137d4612aaa565b60043d036004823e80513d602482011167ffffffffffffffff821117156137fc57505061384f565b808201805167ffffffffffffffff81111561381a575050505061384f565b80602083010160043d03850181111561383757505050505061384f565b61384682602001850186612ed2565b82955050505050505b90565b7f596f7520617265206e6f742077686974656c6973746564000000000000000000600082015250565b6000613888601783612b84565b915061389382613852565b602082019050919050565b600060208201905081810360008301526138b78161387b565b9050919050565b7f4578636565646564206d6178696d756d2043727970746f20446576732073757060008201527f706c790000000000000000000000000000000000000000000000000000000000602082015250565b600061391a602383612b84565b9150613925826138be565b604082019050919050565b600060208201905081810360008301526139498161390d565b9050919050565b7f4552433732313a20696e76616c696420746f6b656e2049440000000000000000600082015250565b6000613986601883612b84565b915061399182613950565b602082019050919050565b600060208201905081810360008301526139b581613979565b9050919050565b7f4552433732313a2061646472657373207a65726f206973206e6f74206120766160008201527f6c6964206f776e65720000000000000000000000000000000000000000000000602082015250565b6000613a18602983612b84565b9150613a23826139bc565b604082019050919050565b60006020820190508181036000830152613a4781613a0b565b9050919050565b600081905092915050565b6000613a6482612b79565b613a6e8185613a4e565b9350613a7e818560208601612b95565b80840191505092915050565b6000613a968285613a59565b9150613aa28284613a59565b91508190509392505050565b7f4f776e61626c653a206e6577206f776e657220697320746865207a65726f206160008201527f6464726573730000000000000000000000000000000000000000000000000000602082015250565b6000613b0a602683612b84565b9150613b1582613aae565b604082019050919050565b60006020820190508181036000830152613b3981613afd565b9050919050565b7f4f776e61626c653a2063616c6c6572206973206e6f7420746865206f776e6572600082015250565b6000613b76602083612b84565b9150613b8182613b40565b602082019050919050565b60006020820190508181036000830152613ba581613b69565b9050919050565b7f4552433732313a207472616e736665722066726f6d20696e636f72726563742060008201527f6f776e6572000000000000000000000000000000000000000000000000000000602082015250565b6000613c08602583612b84565b9150613c1382613bac565b604082019050919050565b60006020820190508181036000830152613c3781613bfb565b9050919050565b7f4552433732313a207472616e7366657220746f20746865207a65726f2061646460008201527f7265737300000000000000000000000000000000000000000000000000000000602082015250565b6000613c9a602483612b84565b9150613ca582613c3e565b604082019050919050565b60006020820190508181036000830152613cc981613c8d565b9050919050565b7f4552433732313a20617070726f766520746f2063616c6c657200000000000000600082015250565b6000613d06601983612b84565b9150613d1182613cd0565b602082019050919050565b60006020820190508181036000830152613d3581613cf9565b9050919050565b7f4552433732313a207472616e7366657220746f206e6f6e20455243373231526560008201527f63656976657220696d706c656d656e7465720000000000000000000000000000602082015250565b6000613d98603283612b84565b9150613da382613d3c565b604082019050919050565b60006020820190508181036000830152613dc781613d8b565b9050919050565b7f4e487b7100000000000000000000000000000000000000000000000000000000600052601260045260246000fd5b7f455243373231456e756d657261626c653a20636f6e736563757469766520747260008201527f616e7366657273206e6f7420737570706f727465640000000000000000000000602082015250565b6000613e59603583612b84565b9150613e6482613dfd565b604082019050919050565b60006020820190508181036000830152613e8881613e4c565b9050919050565b600081519050919050565b600082825260208201905092915050565b6000613eb682613e8f565b613ec08185613e9a565b9350613ed0818560208601612b95565b613ed981612bbf565b840191505092915050565b6000608082019050613ef96000830187612cc0565b613f066020830186612cc0565b613f136040830185612daf565b8181036060830152613f258184613eab565b905095945050505050565b600081519050613f3f81612aea565b92915050565b600060208284031215613f5b57613f5a612ab4565b5b6000613f6984828501613f30565b91505092915050565b7f4552433732313a206d696e7420746f20746865207a65726f2061646472657373600082015250565b6000613fa8602083612b84565b9150613fb382613f72565b602082019050919050565b60006020820190508181036000830152613fd781613f9b565b9050919050565b7f4552433732313a20746f6b656e20616c7265616479206d696e74656400000000600082015250565b6000614014601c83612b84565b915061401f82613fde565b602082019050919050565b6000602082019050818103600083015261404381614007565b9050919050565b600061405582612c2b565b915061406083612c2b565b925082820390508181111561407857614077613091565b5b92915050565b7f4e487b7100000000000000000000000000000000000000000000000000000000600052603160045260246000fdfea2646970667358221220aa9838d1698d0cf94da05f55b3f734069af63afd64984dbdedda278e4e475a8d64736f6c63430008180033",
  "linkReferences": {},
  "deployedLinkReferences": {}
}