{
  "_format": "hh-sol-artifact-1",
  "contractName": "CryptoDevs",
  "sourceName": "contracts/CrypotoDevs.sol",
  "abi": [
    {
      "inputs": [
        {
          "internalType": "string",
          "name": "baseURI",
          "type": "string"
        },
        {
          "internalType": "address",
          "name": "whitelistContract",
          "type": "address"
        }
      ],
      "stateMutability": "nonpayable",
      "type": "constructor"
    },
    {
      "anonymous": false,
      "inputs": [
        {
          "indexed": true,
          "internalType": "address",
          "name": "owner",
          "type": "address"
        },
        {
          "indexed": true,
          "internalType": "address",
          "name": "approved",
          "type": "address"
        },
        {
          "indexed": true,
          "internalType": "uint256",
          "name": "tokenId",
          "type": "uint256"
        }
      ],
      "name": "Approval",
      "type": "event"
    },
    {
      "anonymous": false,
      "inputs": [
        {
          "indexed": true,
          "internalType": "address",
          "name": "owner",
          "type": "address"
        },
        {
          "indexed": true,
          "internalType": "address",
          "name": "operator",
          "type": "address"
        },
        {
          "indexed": false,
          "internalType": "bool",
          "name": "approved",
          "type": "bool"
        }
      ],
      "name": "ApprovalForAll",
      "type": "event"
    },
    {
      "anonymous": false,
      "inputs": [
        {
          "indexed": false,
          "internalType": "uint256",
          "name": "tokenIds",
          "type": "uint256"
        }
      ],
      "name": "CurrentTokenIds",
      "type": "event"
    },
    {
      "anonymous": false,
      "inputs": [
        {
          "indexed": true,
          "internalType": "address",
          "name": "previousOwner",
          "type": "address"
        },
        {
          "indexed": true,
          "internalType": "address",
          "name": "newOwner",
          "type": "address"
        }
      ],
      "name": "OwnershipTransferred",
      "type": "event"
    },
    {
      "anonymous": false,
      "inputs": [
        {
          "indexed": true,
          "internalType": "address",
          "name": "from",
          "type": "address"
        },
        {
          "indexed": true,
          "internalType": "address",
          "name": "to",
          "type": "address"
        },
        {
          "indexed": true,
          "internalType": "uint256",
          "name": "tokenId",
          "type": "uint256"
        }
      ],
      "name": "Transfer",
      "type": "event"
    },
    {
      "stateMutability": "payable",
      "type": "fallback"
    },
    {
      "inputs": [],
      "name": "_paused",
      "outputs": [
        {
          "internalType": "bool",
          "name": "",
          "type": "bool"
        }
      ],
      "stateMutability": "view",
      "type": "function"
    },
    {
      "inputs": [],
      "name": "_price",
      "outputs": [
        {
          "internalType": "uint256",
          "name": "",
          "type": "uint256"
        }
      ],
      "stateMutability": "view",
      "type": "function"
    },
    {
      "inputs": [
        {
          "internalType": "address",
          "name": "to",
          "type": "address"
        },
        {
          "internalType": "uint256",
          "name": "tokenId",
          "type": "uint256"
        }
      ],
      "name": "approve",
      "outputs": [],
      "stateMutability": "nonpayable",
      "type": "function"
    },
    {
      "inputs": [
        {
          "internalType": "address",
          "name": "owner",
          "type": "address"
        }
      ],
      "name": "balanceOf",
      "outputs": [
        {
          "internalType": "uint256",
          "name": "",
          "type": "uint256"
        }
      ],
      "stateMutability": "view",
      "type": "function"
    },
    {
      "inputs": [
        {
          "internalType": "uint256",
          "name": "tokenId",
          "type": "uint256"
        }
      ],
      "name": "getApproved",
      "outputs": [
        {
          "internalType": "address",
          "name": "",
          "type": "address"
        }
      ],
      "stateMutability": "view",
      "type": "function"
    },
    {
      "inputs": [
        {
          "internalType": "address",
          "name": "owner",
          "type": "address"
        },
        {
          "internalType": "address",
          "name": "operator",
          "type": "address"
        }
      ],
      "name": "isApprovedForAll",
      "outputs": [
        {
          "internalType": "bool",
          "name": "",
          "type": "bool"
        }
      ],
      "stateMutability": "view",
      "type": "function"
    },
    {
      "inputs": [],
      "name": "maxTokenIds",
      "outputs": [
        {
          "internalType": "uint256",
          "name": "",
          "type": "uint256"
        }
      ],
      "stateMutability": "view",
      "type": "function"
    },
    {
      "inputs": [],
      "name": "mint",
      "outputs": [],
      "stateMutability": "payable",
      "type": "function"
    },
    {
      "inputs": [],
      "name": "name",
      "outputs": [
        {
          "internalType": "string",
          "name": "",
          "type": "string"
        }
      ],
      "stateMutability": "view",
      "type": "function"
    },
    {
      "inputs": [],
      "name": "owner",
      "outputs": [
        {
          "internalType": "address",
          "name": "",
          "type": "address"
        }
      ],
      "stateMutability": "view",
      "type": "function"
    },
    {
      "inputs": [
        {
          "internalType": "uint256",
          "name": "tokenId",
          "type": "uint256"
        }
      ],
      "name": "ownerOf",
      "outputs": [
        {
          "internalType": "address",
          "name": "",
          "type": "address"
        }
      ],
      "stateMutability": "view",
      "type": "function"
    },
    {
      "inputs": [],
      "name": "presaleEnded",
      "outputs": [
        {
          "internalType": "uint256",
          "name": "",
          "type": "uint256"
        }
      ],
      "stateMutability": "view",
      "type": "function"
    },
    {
      "inputs": [],
      "name": "presaleMint",
      "outputs": [],
      "stateMutability": "payable",
      "type": "function"
    },
    {
      "inputs": [],
      "name": "presaleStarted",
      "outputs": [
        {
          "internalType": "bool",
          "name": "",
          "type": "bool"
        }
      ],
      "stateMutability": "view",
      "type": "function"
    },
    {
      "inputs": [],
      "name": "renounceOwnership",
      "outputs": [],
      "stateMutability": "nonpayable",
      "type": "function"
    },
    {
      "inputs": [
        {
          "internalType": "address",
          "name": "from",
          "type": "address"
        },
        {
          "internalType": "address",
          "name": "to",
          "type": "address"
        },
        {
          "internalType": "uint256",
          "name": "tokenId",
          "type": "uint256"
        }
      ],
      "name": "safeTransferFrom",
      "outputs": [],
      "stateMutability": "nonpayable",
      "type": "function"
    },
    {
      "inputs": [
        {
          "internalType": "address",
          "name": "from",
          "type": "address"
        },
        {
          "internalType": "address",
          "name": "to",
          "type": "address"
        },
        {
          "internalType": "uint256",
          "name": "tokenId",
          "type": "uint256"
        },
        {
          "internalType": "bytes",
          "name": "data",
          "type": "bytes"
        }
      ],
      "name": "safeTransferFrom",
      "outputs": [],
      "stateMutability": "nonpayable",
      "type": "function"
    },
    {
      "inputs": [
        {
          "internalType": "address",
          "name": "operator",
          "type": "address"
        },
        {
          "internalType": "bool",
          "name": "approved",
          "type": "bool"
        }
      ],
      "name": "setApprovalForAll",
      "outputs": [],
      "stateMutability": "nonpayable",
      "type": "function"
    },
    {
      "inputs": [
        {
          "internalType": "bool",
          "name": "val",
          "type": "bool"
        }
      ],
      "name": "setPaused",
      "outputs": [],
      "stateMutability": "nonpayable",
      "type": "function"
    },
    {
      "inputs": [],
      "name": "startPresale",
      "outputs": [],
      "stateMutability": "nonpayable",
      "type": "function"
    },
    {
      "inputs": [
        {
          "internalType": "bytes4",
          "name": "interfaceId",
          "type": "bytes4"
        }
      ],
      "name": "supportsInterface",
      "outputs": [
        {
          "internalType": "bool",
          "name": "",
          "type": "bool"
        }
      ],
      "stateMutability": "view",
      "type": "function"
    },
    {
      "inputs": [],
      "name": "symbol",
      "outputs": [
        {
          "internalType": "string",
          "name": "",
          "type": "string"
        }
      ],
      "stateMutability": "view",
      "type": "function"
    },
    {
      "inputs": [
        {
          "internalType": "uint256",
          "name": "index",
          "type": "uint256"
        }
      ],
      "name": "tokenByIndex",
      "outputs": [
        {
          "internalType": "uint256",
          "name": "",
          "type": "uint256"
        }
      ],
      "stateMutability": "view",
      "type": "function"
    },
    {
      "inputs": [],
      "name": "tokenIds",
      "outputs": [
        {
          "internalType": "uint256",
          "name": "",
          "type": "uint256"
        }
      ],
      "stateMutability": "view",
      "type": "function"
    },
    {
      "inputs": [
        {
          "internalType": "address",
          "name": "owner",
          "type": "address"
        },
        {
          "internalType": "uint256",
          "name": "index",
          "type": "uint256"
        }
      ],
      "name": "tokenOfOwnerByIndex",
      "outputs": [
        {
          "internalType": "uint256",
          "name": "",
          "type": "uint256"
        }
      ],
      "stateMutability": "view",
      "type": "function"
    },
    {
      "inputs": [
        {
          "internalType": "uint256",
          "name": "tokenId",
          "type": "uint256"
        }
      ],
      "name": "tokenURI",
      "outputs": [
        {
          "internalType": "string",
          "name": "",
          "type": "string"
        }
      ],
      "stateMutability": "view",
      "type": "function"
    },
    {
      "inputs": [],
      "name": "totalSupply",
      "outputs": [
        {
          "internalType": "uint256",
          "name": "",
          "type": "uint256"
        }
      ],
      "stateMutability": "view",
      "type": "function"
    },
    {
      "inputs": [
        {
          "internalType": "address",
          "name": "from",
          "type": "address"
        },
        {
          "internalType": "address",
          "name": "to",
          "type": "address"
        },
        {
          "internalType": "uint256",
          "name": "tokenId",
          "type": "uint256"
        }
      ],
      "name": "transferFrom",
      "outputs": [],
      "stateMutability": "nonpayable",
      "type": "function"
    },
    {
      "inputs": [
        {
          "internalType": "address",
          "name": "newOwner",
          "type": "address"
        }
      ],
      "name": "transferOwnership",
      "outputs": [],
      "stateMutability": "nonpayable",
      "type": "function"
    },
    {
      "inputs": [],
      "name": "withdraw",
      "outputs": [],
      "stateMutability": "nonpayable",
      "type": "function"
    },
    {
      "stateMutability": "payable",
      "type": "receive"
    }
  ],
  "bytecode": "0x6080604052662386f26fc10000600c556014600e553480156200002157600080fd5b5060405162004a5638038062004a5683398181016040528101906200004791906200041a565b6040518060400160405280600b81526020017f43727970746f20446576730000000000000000000000000000000000000000008152506040518060400160405280600281526020017f43440000000000000000000000000000000000000000000000000000000000008152508160009081620000c49190620006cb565b508060019081620000d69190620006cb565b505050620000f9620000ed6200015460201b60201c565b6200015c60201b60201c565b81600b90816200010a9190620006cb565b5080601060006101000a81548173ffffffffffffffffffffffffffffffffffffffff021916908373ffffffffffffffffffffffffffffffffffffffff1602179055505050620007b2565b600033905090565b6000600a60009054906101000a900473ffffffffffffffffffffffffffffffffffffffff16905081600a60006101000a81548173ffffffffffffffffffffffffffffffffffffffff021916908373ffffffffffffffffffffffffffffffffffffffff1602179055508173ffffffffffffffffffffffffffffffffffffffff168173ffffffffffffffffffffffffffffffffffffffff167f8be0079c531659141344cd1fd0a4f28419497f9722a3daafe3b4186f6b6457e060405160405180910390a35050565b6000604051905090565b600080fd5b600080fd5b600080fd5b600080fd5b6000601f19601f8301169050919050565b7f4e487b7100000000000000000000000000000000000000000000000000000000600052604160045260246000fd5b6200028b8262000240565b810181811067ffffffffffffffff82111715620002ad57620002ac62000251565b5b80604052505050565b6000620002c262000222565b9050620002d0828262000280565b919050565b600067ffffffffffffffff821115620002f357620002f262000251565b5b620002fe8262000240565b9050602081019050919050565b60005b838110156200032b5780820151818401526020810190506200030e565b60008484015250505050565b60006200034e6200034884620002d5565b620002b6565b9050828152602081018484840111156200036d576200036c6200023b565b5b6200037a8482856200030b565b509392505050565b600082601f8301126200039a576200039962000236565b5b8151620003ac84826020860162000337565b91505092915050565b600073ffffffffffffffffffffffffffffffffffffffff82169050919050565b6000620003e282620003b5565b9050919050565b620003f481620003d5565b81146200040057600080fd5b50565b6000815190506200041481620003e9565b92915050565b600080604083850312156200043457620004336200022c565b5b600083015167ffffffffffffffff81111562000455576200045462000231565b5b620004638582860162000382565b9250506020620004768582860162000403565b9150509250929050565b600081519050919050565b7f4e487b7100000000000000000000000000000000000000000000000000000000600052602260045260246000fd5b60006002820490506001821680620004d357607f821691505b602082108103620004e957620004e86200048b565b5b50919050565b60008190508160005260206000209050919050565b60006020601f8301049050919050565b600082821b905092915050565b600060088302620005537fffffffffffffffffffffffffffffffffffffffffffffffffffffffffffffffff8262000514565b6200055f868362000514565b95508019841693508086168417925050509392505050565b6000819050919050565b6000819050919050565b6000620005ac620005a6620005a08462000577565b62000581565b62000577565b9050919050565b6000819050919050565b620005c8836200058b565b620005e0620005d782620005b3565b84845462000521565b825550505050565b600090565b620005f7620005e8565b62000604818484620005bd565b505050565b5b818110156200062c5762000620600082620005ed565b6001810190506200060a565b5050565b601f8211156200067b576200064581620004ef565b620006508462000504565b8101602085101562000660578190505b620006786200066f8562000504565b83018262000609565b50505b505050565b600082821c905092915050565b6000620006a06000198460080262000680565b1980831691505092915050565b6000620006bb83836200068d565b9150826002028217905092915050565b620006d68262000480565b67ffffffffffffffff811115620006f257620006f162000251565b5b620006fe8254620004ba565b6200070b82828562000630565b600060209050601f8311600181146200074357600084156200072e578287015190505b6200073a8582620006ad565b865550620007aa565b601f1984166200075386620004ef565b60005b828110156200077d5784890151825560018201915060208501945060208101905062000756565b868310156200079d578489015162000799601f8916826200068d565b8355505b6001600288020188555050505b505050505050565b61429480620007c26000396000f3fe6080604052600436106101d15760003560e01c80634f6ccce7116100f75780638da5cb5b11610095578063c87b56dd11610064578063c87b56dd1461061a578063e580b2b014610657578063e985e9c514610682578063f2fde38b146106bf576101d8565b80638da5cb5b1461057257806395d89b411461059d578063a22cb465146105c8578063b88d4fde146105f1576101d8565b80636352211e116100d15780636352211e146104b657806370a08231146104f3578063714cff5614610530578063715018a61461055b576101d8565b80634f6ccce71461044457806359533d6c146104815780635f7696211461048b576101d8565b806316c38b3c1161016f57806323b872dd1161013e57806323b872dd1461039e5780632f745c59146103c75780633ccfd60b1461040457806342842e0e1461041b576101d8565b806316c38b3c146102f457806316c61ccc1461031d57806318160ddd14610348578063235b6ea114610373576101d8565b806306fdde03116101ab57806306fdde0314610259578063081812fc14610284578063095ea7b3146102c15780631249c58b146102ea576101d8565b806301ffc9a7146101da57806304549d6f1461021757806304c98b2b14610242576101d8565b366101d857005b005b3480156101e657600080fd5b5061020160048036038101906101fc9190612c37565b6106e8565b60405161020e9190612c7f565b60405180910390f35b34801561022357600080fd5b5061022c610762565b6040516102399190612c7f565b60405180910390f35b34801561024e57600080fd5b50610257610775565b005b34801561026557600080fd5b5061026e6107ae565b60405161027b9190612d2a565b60405180910390f35b34801561029057600080fd5b506102ab60048036038101906102a69190612d82565b610840565b6040516102b89190612df0565b60405180910390f35b3480156102cd57600080fd5b506102e860048036038101906102e39190612e37565b610886565b005b6102f261099d565b005b34801561030057600080fd5b5061031b60048036038101906103169190612ea3565b610b5b565b005b34801561032957600080fd5b50610332610b80565b60405161033f9190612c7f565b60405180910390f35b34801561035457600080fd5b5061035d610b93565b60405161036a9190612edf565b60405180910390f35b34801561037f57600080fd5b50610388610ba0565b6040516103959190612edf565b60405180910390f35b3480156103aa57600080fd5b506103c560048036038101906103c09190612efa565b610ba6565b005b3480156103d357600080fd5b506103ee60048036038101906103e99190612e37565b610c06565b6040516103fb9190612edf565b60405180910390f35b34801561041057600080fd5b50610419610cab565b005b34801561042757600080fd5b50610442600480360381019061043d9190612efa565b610d75565b005b34801561045057600080fd5b5061046b60048036038101906104669190612d82565b610d95565b6040516104789190612edf565b60405180910390f35b610489610e06565b005b34801561049757600080fd5b506104a06111f3565b6040516104ad9190612edf565b60405180910390f35b3480156104c257600080fd5b506104dd60048036038101906104d89190612d82565b6111f9565b6040516104ea9190612df0565b60405180910390f35b3480156104ff57600080fd5b5061051a60048036038101906105159190612f4d565b61127f565b6040516105279190612edf565b60405180910390f35b34801561053c57600080fd5b50610545611336565b6040516105529190612edf565b60405180910390f35b34801561056757600080fd5b5061057061133c565b005b34801561057e57600080fd5b50610587611350565b6040516105949190612df0565b60405180910390f35b3480156105a957600080fd5b506105b261137a565b6040516105bf9190612d2a565b60405180910390f35b3480156105d457600080fd5b506105ef60048036038101906105ea9190612f7a565b61140c565b005b3480156105fd57600080fd5b50610618600480360381019061061391906130ef565b611422565b005b34801561062657600080fd5b50610641600480360381019061063c9190612d82565b611484565b60405161064e9190612d2a565b60405180910390f35b34801561066357600080fd5b5061066c6114ec565b6040516106799190612edf565b60405180910390f35b34801561068e57600080fd5b506106a960048036038101906106a49190613172565b6114f2565b6040516106b69190612c7f565b60405180910390f35b3480156106cb57600080fd5b506106e660048036038101906106e19190612f4d565b611586565b005b60007f780e9d63000000000000000000000000000000000000000000000000000000007bffffffffffffffffffffffffffffffffffffffffffffffffffffffff1916827bffffffffffffffffffffffffffffffffffffffffffffffffffffffff1916148061075b575061075a82611609565b5b9050919050565b601060149054906101000a900460ff1681565b61077d6116eb565b6001601060146101000a81548160ff02191690831515021790555061012c426107a691906131e1565b601181905550565b6060600080546107bd90613244565b80601f01602080910402602001604051908101604052809291908181526020018280546107e990613244565b80156108365780601f1061080b57610100808354040283529160200191610836565b820191906000526020600020905b81548152906001019060200180831161081957829003601f168201915b5050505050905090565b600061084b82611769565b6004600083815260200190815260200160002060009054906101000a900473ffffffffffffffffffffffffffffffffffffffff169050919050565b6000610891826111f9565b90508073ffffffffffffffffffffffffffffffffffffffff168373ffffffffffffffffffffffffffffffffffffffff1603610901576040517f08c379a00000000000000000000000000000000000000000000000000000000081526004016108f8906132e7565b60405180910390fd5b8073ffffffffffffffffffffffffffffffffffffffff166109206117b4565b73ffffffffffffffffffffffffffffffffffffffff16148061094f575061094e816109496117b4565b6114f2565b5b61098e576040517f08c379a000000000000000000000000000000000000000000000000000000000815260040161098590613379565b60405180910390fd5b61099883836117bc565b505050565b600d60009054906101000a900460ff16156109ed576040517f08c379a00000000000000000000000000000000000000000000000000000000081526004016109e4906133e5565b60405180910390fd5b601060149054906101000a900460ff168015610a0b57506011544210155b610a4a576040517f08c379a0000000000000000000000000000000000000000000000000000000008152600401610a4190613451565b60405180910390fd5b600e54600f5410610a90576040517f08c379a0000000000000000000000000000000000000000000000000000000008152600401610a87906134e3565b60405180910390fd5b600c54341015610ad5576040517f08c379a0000000000000000000000000000000000000000000000000000000008152600401610acc9061354f565b60405180910390fd5b610ae133600f54611875565b610b0660405180606001604052806023815260200161423c60239139600f5433611893565b6001600f6000828254610b1991906131e1565b925050819055507f72fa0e5e6728d15f0dd23110bfd84b7096e28b7b684a482f8685975d85b2a761600f54604051610b519190612edf565b60405180910390a1565b610b636116eb565b80600d60006101000a81548160ff02191690831515021790555050565b600d60009054906101000a900460ff1681565b6000600880549050905090565b600c5481565b610bb7610bb16117b4565b82611932565b610bf6576040517f08c379a0000000000000000000000000000000000000000000000000000000008152600401610bed906135e1565b60405180910390fd5b610c018383836119c7565b505050565b6000610c118361127f565b8210610c52576040517f08c379a0000000000000000000000000000000000000000000000000000000008152600401610c4990613673565b60405180910390fd5b600660008473ffffffffffffffffffffffffffffffffffffffff1673ffffffffffffffffffffffffffffffffffffffff168152602001908152602001600020600083815260200190815260200160002054905092915050565b610cb36116eb565b6000610cbd611350565b9050600047905060008273ffffffffffffffffffffffffffffffffffffffff1682604051610cea906136c4565b60006040518083038185875af1925050503d8060008114610d27576040519150601f19603f3d011682016040523d82523d6000602084013e610d2c565b606091505b5050905080610d70576040517f08c379a0000000000000000000000000000000000000000000000000000000008152600401610d6790613725565b60405180910390fd5b505050565b610d9083838360405180602001604052806000815250611422565b505050565b6000610d9f610b93565b8210610de0576040517f08c379a0000000000000000000000000000000000000000000000000000000008152600401610dd7906137b7565b60405180910390fd5b60088281548110610df457610df36137d7565b5b90600052602060002001549050919050565b600d60009054906101000a900460ff1615610e56576040517f08c379a0000000000000000000000000000000000000000000000000000000008152600401610e4d906133e5565b60405180910390fd5b601060149054906101000a900460ff168015610e73575060115442105b610eb2576040517f08c379a0000000000000000000000000000000000000000000000000000000008152600401610ea990613852565b60405180910390fd5b601060009054906101000a900473ffffffffffffffffffffffffffffffffffffffff1673ffffffffffffffffffffffffffffffffffffffff166306c933d8336040518263ffffffff1660e01b8152600401610f0d9190612df0565b602060405180830381865afa925050508015610f4757506040513d601f19601f82011682018060405250810190610f449190613887565b60015b610fc557610f536138c1565b806308c379a003610fb95750610f676138e3565b80610f725750610fbb565b6000610fb3576040517f08c379a0000000000000000000000000000000000000000000000000000000008152600401610faa906139bf565b60405180910390fd5b506111f1565b505b3d6000803e3d6000fd5b80611005576040517f08c379a0000000000000000000000000000000000000000000000000000000008152600401610ffc906139bf565b60405180910390fd5b50601060009054906101000a900473ffffffffffffffffffffffffffffffffffffffff1673ffffffffffffffffffffffffffffffffffffffff166306c933d8336040518263ffffffff1660e01b81526004016110619190612df0565b602060405180830381865afa15801561107e573d6000803e3d6000fd5b505050506040513d601f19601f820116820180604052508101906110a29190613887565b6110e1576040517f08c379a00000000000000000000000000000000000000000000000000000000081526004016110d8906139bf565b60405180910390fd5b600e54600f5410611127576040517f08c379a000000000000000000000000000000000000000000000000000000000815260040161111e90613a51565b60405180910390fd5b600c5434101561116c576040517f08c379a00000000000000000000000000000000000000000000000000000000081526004016111639061354f565b60405180910390fd5b61117833600f54611875565b61119d60405180606001604052806023815260200161423c60239139600f5433611893565b6001600f60008282546111b091906131e1565b925050819055507f72fa0e5e6728d15f0dd23110bfd84b7096e28b7b684a482f8685975d85b2a761600f546040516111e89190612edf565b60405180910390a15b565b600e5481565b60008061120583611cc0565b9050600073ffffffffffffffffffffffffffffffffffffffff168173ffffffffffffffffffffffffffffffffffffffff1603611276576040517f08c379a000000000000000000000000000000000000000000000000000000000815260040161126d90613abd565b60405180910390fd5b80915050919050565b60008073ffffffffffffffffffffffffffffffffffffffff168273ffffffffffffffffffffffffffffffffffffffff16036112ef576040517f08c379a00000000000000000000000000000000000000000000000000000000081526004016112e690613b4f565b60405180910390fd5b600360008373ffffffffffffffffffffffffffffffffffffffff1673ffffffffffffffffffffffffffffffffffffffff168152602001908152602001600020549050919050565b600f5481565b6113446116eb565b61134e6000611cfd565b565b6000600a60009054906101000a900473ffffffffffffffffffffffffffffffffffffffff16905090565b60606001805461138990613244565b80601f01602080910402602001604051908101604052809291908181526020018280546113b590613244565b80156114025780601f106113d757610100808354040283529160200191611402565b820191906000526020600020905b8154815290600101906020018083116113e557829003601f168201915b5050505050905090565b61141e6114176117b4565b8383611dc3565b5050565b61143361142d6117b4565b83611932565b611472576040517f08c379a0000000000000000000000000000000000000000000000000000000008152600401611469906135e1565b60405180910390fd5b61147e84848484611f2f565b50505050565b606061148f82611769565b6000611499611f8b565b905060008151116114b957604051806020016040528060008152506114e4565b806114c38461201d565b6040516020016114d4929190613bab565b6040516020818303038152906040525b915050919050565b60115481565b6000600560008473ffffffffffffffffffffffffffffffffffffffff1673ffffffffffffffffffffffffffffffffffffffff16815260200190815260200160002060008373ffffffffffffffffffffffffffffffffffffffff1673ffffffffffffffffffffffffffffffffffffffff16815260200190815260200160002060009054906101000a900460ff16905092915050565b61158e6116eb565b600073ffffffffffffffffffffffffffffffffffffffff168173ffffffffffffffffffffffffffffffffffffffff16036115fd576040517f08c379a00000000000000000000000000000000000000000000000000000000081526004016115f490613c41565b60405180910390fd5b61160681611cfd565b50565b60007f80ac58cd000000000000000000000000000000000000000000000000000000007bffffffffffffffffffffffffffffffffffffffffffffffffffffffff1916827bffffffffffffffffffffffffffffffffffffffffffffffffffffffff191614806116d457507f5b5e139f000000000000000000000000000000000000000000000000000000007bffffffffffffffffffffffffffffffffffffffffffffffffffffffff1916827bffffffffffffffffffffffffffffffffffffffffffffffffffffffff1916145b806116e457506116e3826120eb565b5b9050919050565b6116f36117b4565b73ffffffffffffffffffffffffffffffffffffffff16611711611350565b73ffffffffffffffffffffffffffffffffffffffff1614611767576040517f08c379a000000000000000000000000000000000000000000000000000000000815260040161175e90613cad565b60405180910390fd5b565b61177281612155565b6117b1576040517f08c379a00000000000000000000000000000000000000000000000000000000081526004016117a890613abd565b60405180910390fd5b50565b600033905090565b816004600083815260200190815260200160002060006101000a81548173ffffffffffffffffffffffffffffffffffffffff021916908373ffffffffffffffffffffffffffffffffffffffff160217905550808273ffffffffffffffffffffffffffffffffffffffff1661182f836111f9565b73ffffffffffffffffffffffffffffffffffffffff167f8c5be1e5ebec7d5bd14f71427d1e84f3dd0314c0f7b2291e5b200ac8c7c3b92560405160405180910390a45050565b61188f828260405180602001604052806000815250612196565b5050565b61192d8383836040516024016118ab93929190613ccd565b6040516020818303038152906040527f1c7ec448000000000000000000000000000000000000000000000000000000007bffffffffffffffffffffffffffffffffffffffffffffffffffffffff19166020820180517bffffffffffffffffffffffffffffffffffffffffffffffffffffffff83818316178352505050506121f1565b505050565b60008061193e836111f9565b90508073ffffffffffffffffffffffffffffffffffffffff168473ffffffffffffffffffffffffffffffffffffffff161480611980575061197f81856114f2565b5b806119be57508373ffffffffffffffffffffffffffffffffffffffff166119a684610840565b73ffffffffffffffffffffffffffffffffffffffff16145b91505092915050565b8273ffffffffffffffffffffffffffffffffffffffff166119e7826111f9565b73ffffffffffffffffffffffffffffffffffffffff1614611a3d576040517f08c379a0000000000000000000000000000000000000000000000000000000008152600401611a3490613d7d565b60405180910390fd5b600073ffffffffffffffffffffffffffffffffffffffff168273ffffffffffffffffffffffffffffffffffffffff1603611aac576040517f08c379a0000000000000000000000000000000000000000000000000000000008152600401611aa390613e0f565b60405180910390fd5b611ab9838383600161220b565b8273ffffffffffffffffffffffffffffffffffffffff16611ad9826111f9565b73ffffffffffffffffffffffffffffffffffffffff1614611b2f576040517f08c379a0000000000000000000000000000000000000000000000000000000008152600401611b2690613d7d565b60405180910390fd5b6004600082815260200190815260200160002060006101000a81549073ffffffffffffffffffffffffffffffffffffffff02191690556001600360008573ffffffffffffffffffffffffffffffffffffffff1673ffffffffffffffffffffffffffffffffffffffff168152602001908152602001600020600082825403925050819055506001600360008473ffffffffffffffffffffffffffffffffffffffff1673ffffffffffffffffffffffffffffffffffffffff16815260200190815260200160002060008282540192505081905550816002600083815260200190815260200160002060006101000a81548173ffffffffffffffffffffffffffffffffffffffff021916908373ffffffffffffffffffffffffffffffffffffffff160217905550808273ffffffffffffffffffffffffffffffffffffffff168473ffffffffffffffffffffffffffffffffffffffff167fddf252ad1be2c89b69c2b068fc378daa952ba7f163c4a11628f55a4df523b3ef60405160405180910390a4611cbb8383836001612369565b505050565b60006002600083815260200190815260200160002060009054906101000a900473ffffffffffffffffffffffffffffffffffffffff169050919050565b6000600a60009054906101000a900473ffffffffffffffffffffffffffffffffffffffff16905081600a60006101000a81548173ffffffffffffffffffffffffffffffffffffffff021916908373ffffffffffffffffffffffffffffffffffffffff1602179055508173ffffffffffffffffffffffffffffffffffffffff168173ffffffffffffffffffffffffffffffffffffffff167f8be0079c531659141344cd1fd0a4f28419497f9722a3daafe3b4186f6b6457e060405160405180910390a35050565b8173ffffffffffffffffffffffffffffffffffffffff168373ffffffffffffffffffffffffffffffffffffffff1603611e31576040517f08c379a0000000000000000000000000000000000000000000000000000000008152600401611e2890613e7b565b60405180910390fd5b80600560008573ffffffffffffffffffffffffffffffffffffffff1673ffffffffffffffffffffffffffffffffffffffff16815260200190815260200160002060008473ffffffffffffffffffffffffffffffffffffffff1673ffffffffffffffffffffffffffffffffffffffff16815260200190815260200160002060006101000a81548160ff0219169083151502179055508173ffffffffffffffffffffffffffffffffffffffff168373ffffffffffffffffffffffffffffffffffffffff167f17307eab39ab6107e8899845ad3d59bd9653f200f220920489ca2b5937696c3183604051611f229190612c7f565b60405180910390a3505050565b611f3a8484846119c7565b611f468484848461236f565b611f85576040517f08c379a0000000000000000000000000000000000000000000000000000000008152600401611f7c90613f0d565b60405180910390fd5b50505050565b6060600b8054611f9a90613244565b80601f0160208091040260200160405190810160405280929190818152602001828054611fc690613244565b80156120135780601f10611fe857610100808354040283529160200191612013565b820191906000526020600020905b815481529060010190602001808311611ff657829003601f168201915b5050505050905090565b60606000600161202c846124f6565b01905060008167ffffffffffffffff81111561204b5761204a612fc4565b5b6040519080825280601f01601f19166020018201604052801561207d5781602001600182028036833780820191505090505b509050600082602001820190505b6001156120e0578080600190039150507f3031323334353637383961626364656600000000000000000000000000000000600a86061a8153600a85816120d4576120d3613f2d565b5b0494506000850361208b575b819350505050919050565b60007f01ffc9a7000000000000000000000000000000000000000000000000000000007bffffffffffffffffffffffffffffffffffffffffffffffffffffffff1916827bffffffffffffffffffffffffffffffffffffffffffffffffffffffff1916149050919050565b60008073ffffffffffffffffffffffffffffffffffffffff1661217783611cc0565b73ffffffffffffffffffffffffffffffffffffffff1614159050919050565b6121a08383612649565b6121ad600084848461236f565b6121ec576040517f08c379a00000000000000000000000000000000000000000000000000000000081526004016121e390613f0d565b60405180910390fd5b505050565b61220881612200612866612887565b63ffffffff16565b50565b61221784848484612892565b600181111561225b576040517f08c379a000000000000000000000000000000000000000000000000000000000815260040161225290613fce565b60405180910390fd5b6000829050600073ffffffffffffffffffffffffffffffffffffffff168573ffffffffffffffffffffffffffffffffffffffff16036122a25761229d81612898565b6122e1565b8373ffffffffffffffffffffffffffffffffffffffff168573ffffffffffffffffffffffffffffffffffffffff16146122e0576122df85826128e1565b5b5b600073ffffffffffffffffffffffffffffffffffffffff168473ffffffffffffffffffffffffffffffffffffffff16036123235761231e81612a4e565b612362565b8473ffffffffffffffffffffffffffffffffffffffff168473ffffffffffffffffffffffffffffffffffffffff1614612361576123608482612b1f565b5b5b5050505050565b50505050565b60006123908473ffffffffffffffffffffffffffffffffffffffff16612b9e565b156124e9578373ffffffffffffffffffffffffffffffffffffffff1663150b7a026123b96117b4565b8786866040518563ffffffff1660e01b81526004016123db9493929190614043565b6020604051808303816000875af192505050801561241757506040513d601f19601f8201168201806040525081019061241491906140a4565b60015b612499573d8060008114612447576040519150601f19603f3d011682016040523d82523d6000602084013e61244c565b606091505b506000815103612491576040517f08c379a000000000000000000000000000000000000000000000000000000000815260040161248890613f0d565b60405180910390fd5b805181602001fd5b63150b7a0260e01b7bffffffffffffffffffffffffffffffffffffffffffffffffffffffff1916817bffffffffffffffffffffffffffffffffffffffffffffffffffffffff1916149150506124ee565b600190505b949350505050565b600080600090507a184f03e93ff9f4daa797ed6e38ed64bf6a1f0100000000000000008310612554577a184f03e93ff9f4daa797ed6e38ed64bf6a1f010000000000000000838161254a57612549613f2d565b5b0492506040810190505b6d04ee2d6d415b85acef81000000008310612591576d04ee2d6d415b85acef8100000000838161258757612586613f2d565b5b0492506020810190505b662386f26fc1000083106125c057662386f26fc1000083816125b6576125b5613f2d565b5b0492506010810190505b6305f5e10083106125e9576305f5e10083816125df576125de613f2d565b5b0492506008810190505b612710831061260e57612710838161260457612603613f2d565b5b0492506004810190505b60648310612631576064838161262757612626613f2d565b5b0492506002810190505b600a8310612640576001810190505b80915050919050565b600073ffffffffffffffffffffffffffffffffffffffff168273ffffffffffffffffffffffffffffffffffffffff16036126b8576040517f08c379a00000000000000000000000000000000000000000000000000000000081526004016126af9061411d565b60405180910390fd5b6126c181612155565b15612701576040517f08c379a00000000000000000000000000000000000000000000000000000000081526004016126f890614189565b60405180910390fd5b61270f60008383600161220b565b61271881612155565b15612758576040517f08c379a000000000000000000000000000000000000000000000000000000000815260040161274f90614189565b60405180910390fd5b6001600360008473ffffffffffffffffffffffffffffffffffffffff1673ffffffffffffffffffffffffffffffffffffffff16815260200190815260200160002060008282540192505081905550816002600083815260200190815260200160002060006101000a81548173ffffffffffffffffffffffffffffffffffffffff021916908373ffffffffffffffffffffffffffffffffffffffff160217905550808273ffffffffffffffffffffffffffffffffffffffff16600073ffffffffffffffffffffffffffffffffffffffff167fddf252ad1be2c89b69c2b068fc378daa952ba7f163c4a11628f55a4df523b3ef60405160405180910390a4612862600083836001612369565b5050565b60006a636f6e736f6c652e6c6f679050600080835160208501845afa505050565b612bc1819050919050565b50505050565b6008805490506009600083815260200190815260200160002081905550600881908060018154018082558091505060019003906000526020600020016000909190919091505550565b600060016128ee8461127f565b6128f891906141a9565b90506000600760008481526020019081526020016000205490508181146129dd576000600660008673ffffffffffffffffffffffffffffffffffffffff1673ffffffffffffffffffffffffffffffffffffffff168152602001908152602001600020600084815260200190815260200160002054905080600660008773ffffffffffffffffffffffffffffffffffffffff1673ffffffffffffffffffffffffffffffffffffffff168152602001908152602001600020600084815260200190815260200160002081905550816007600083815260200190815260200160002081905550505b6007600084815260200190815260200160002060009055600660008573ffffffffffffffffffffffffffffffffffffffff1673ffffffffffffffffffffffffffffffffffffffff16815260200190815260200160002060008381526020019081526020016000206000905550505050565b60006001600880549050612a6291906141a9565b9050600060096000848152602001908152602001600020549050600060088381548110612a9257612a916137d7565b5b906000526020600020015490508060088381548110612ab457612ab36137d7565b5b906000526020600020018190555081600960008381526020019081526020016000208190555060096000858152602001908152602001600020600090556008805480612b0357612b026141dd565b5b6001900381819060005260206000200160009055905550505050565b6000612b2a8361127f565b905081600660008573ffffffffffffffffffffffffffffffffffffffff1673ffffffffffffffffffffffffffffffffffffffff168152602001908152602001600020600083815260200190815260200160002081905550806007600084815260200190815260200160002081905550505050565b6000808273ffffffffffffffffffffffffffffffffffffffff163b119050919050565b612bc961420c565b565b6000604051905090565b600080fd5b600080fd5b60007fffffffff0000000000000000000000000000000000000000000000000000000082169050919050565b612c1481612bdf565b8114612c1f57600080fd5b50565b600081359050612c3181612c0b565b92915050565b600060208284031215612c4d57612c4c612bd5565b5b6000612c5b84828501612c22565b91505092915050565b60008115159050919050565b612c7981612c64565b82525050565b6000602082019050612c946000830184612c70565b92915050565b600081519050919050565b600082825260208201905092915050565b60005b83811015612cd4578082015181840152602081019050612cb9565b60008484015250505050565b6000601f19601f8301169050919050565b6000612cfc82612c9a565b612d068185612ca5565b9350612d16818560208601612cb6565b612d1f81612ce0565b840191505092915050565b60006020820190508181036000830152612d448184612cf1565b905092915050565b6000819050919050565b612d5f81612d4c565b8114612d6a57600080fd5b50565b600081359050612d7c81612d56565b92915050565b600060208284031215612d9857612d97612bd5565b5b6000612da684828501612d6d565b91505092915050565b600073ffffffffffffffffffffffffffffffffffffffff82169050919050565b6000612dda82612daf565b9050919050565b612dea81612dcf565b82525050565b6000602082019050612e056000830184612de1565b92915050565b612e1481612dcf565b8114612e1f57600080fd5b50565b600081359050612e3181612e0b565b92915050565b60008060408385031215612e4e57612e4d612bd5565b5b6000612e5c85828601612e22565b9250506020612e6d85828601612d6d565b9150509250929050565b612e8081612c64565b8114612e8b57600080fd5b50565b600081359050612e9d81612e77565b92915050565b600060208284031215612eb957612eb8612bd5565b5b6000612ec784828501612e8e565b91505092915050565b612ed981612d4c565b82525050565b6000602082019050612ef46000830184612ed0565b92915050565b600080600060608486031215612f1357612f12612bd5565b5b6000612f2186828701612e22565b9350506020612f3286828701612e22565b9250506040612f4386828701612d6d565b9150509250925092565b600060208284031215612f6357612f62612bd5565b5b6000612f7184828501612e22565b91505092915050565b60008060408385031215612f9157612f90612bd5565b5b6000612f9f85828601612e22565b9250506020612fb085828601612e8e565b9150509250929050565b600080fd5b600080fd5b7f4e487b7100000000000000000000000000000000000000000000000000000000600052604160045260246000fd5b612ffc82612ce0565b810181811067ffffffffffffffff8211171561301b5761301a612fc4565b5b80604052505050565b600061302e612bcb565b905061303a8282612ff3565b919050565b600067ffffffffffffffff82111561305a57613059612fc4565b5b61306382612ce0565b9050602081019050919050565b82818337600083830152505050565b600061309261308d8461303f565b613024565b9050828152602081018484840111156130ae576130ad612fbf565b5b6130b9848285613070565b509392505050565b600082601f8301126130d6576130d5612fba565b5b81356130e684826020860161307f565b91505092915050565b6000806000806080858703121561310957613108612bd5565b5b600061311787828801612e22565b945050602061312887828801612e22565b935050604061313987828801612d6d565b925050606085013567ffffffffffffffff81111561315a57613159612bda565b5b613166878288016130c1565b91505092959194509250565b6000806040838503121561318957613188612bd5565b5b600061319785828601612e22565b92505060206131a885828601612e22565b9150509250929050565b7f4e487b7100000000000000000000000000000000000000000000000000000000600052601160045260246000fd5b60006131ec82612d4c565b91506131f783612d4c565b925082820190508082111561320f5761320e6131b2565b5b92915050565b7f4e487b7100000000000000000000000000000000000000000000000000000000600052602260045260246000fd5b6000600282049050600182168061325c57607f821691505b60208210810361326f5761326e613215565b5b50919050565b7f4552433732313a20617070726f76616c20746f2063757272656e74206f776e6560008201527f7200000000000000000000000000000000000000000000000000000000000000602082015250565b60006132d1602183612ca5565b91506132dc82613275565b604082019050919050565b60006020820190508181036000830152613300816132c4565b9050919050565b7f4552433732313a20617070726f76652063616c6c6572206973206e6f7420746f60008201527f6b656e206f776e6572206f7220617070726f76656420666f7220616c6c000000602082015250565b6000613363603d83612ca5565b915061336e82613307565b604082019050919050565b6000602082019050818103600083015261339281613356565b9050919050565b7f436f6e74726163742063757272656e746c792070617573656400000000000000600082015250565b60006133cf601983612ca5565b91506133da82613399565b602082019050919050565b600060208201905081810360008301526133fe816133c2565b9050919050565b7f50726573616c6520686173206e6f7420656e6465642079657400000000000000600082015250565b600061343b601983612ca5565b915061344682613405565b602082019050919050565b6000602082019050818103600083015261346a8161342e565b9050919050565b7f457863656564206d6178696d756d2043727970746f204465767320737570706c60008201527f7900000000000000000000000000000000000000000000000000000000000000602082015250565b60006134cd602183612ca5565b91506134d882613471565b604082019050919050565b600060208201905081810360008301526134fc816134c0565b9050919050565b7f45746865722073656e74206973206e6f7420636f727265637400000000000000600082015250565b6000613539601983612ca5565b915061354482613503565b602082019050919050565b600060208201905081810360008301526135688161352c565b9050919050565b7f4552433732313a2063616c6c6572206973206e6f7420746f6b656e206f776e6560008201527f72206f7220617070726f76656400000000000000000000000000000000000000602082015250565b60006135cb602d83612ca5565b91506135d68261356f565b604082019050919050565b600060208201905081810360008301526135fa816135be565b9050919050565b7f455243373231456e756d657261626c653a206f776e657220696e646578206f7560008201527f74206f6620626f756e6473000000000000000000000000000000000000000000602082015250565b600061365d602b83612ca5565b915061366882613601565b604082019050919050565b6000602082019050818103600083015261368c81613650565b9050919050565b600081905092915050565b50565b60006136ae600083613693565b91506136b98261369e565b600082019050919050565b60006136cf826136a1565b9150819050919050565b7f4661696c656420746f2073656e64204574686572000000000000000000000000600082015250565b600061370f601483612ca5565b915061371a826136d9565b602082019050919050565b6000602082019050818103600083015261373e81613702565b9050919050565b7f455243373231456e756d657261626c653a20676c6f62616c20696e646578206f60008201527f7574206f6620626f756e64730000000000000000000000000000000000000000602082015250565b60006137a1602c83612ca5565b91506137ac82613745565b604082019050919050565b600060208201905081810360008301526137d081613794565b9050919050565b7f4e487b7100000000000000000000000000000000000000000000000000000000600052603260045260246000fd5b7f50726573616c65206973206e6f742072756e6e696e6700000000000000000000600082015250565b600061383c601683612ca5565b915061384782613806565b602082019050919050565b6000602082019050818103600083015261386b8161382f565b9050919050565b60008151905061388181612e77565b92915050565b60006020828403121561389d5761389c612bd5565b5b60006138ab84828501613872565b91505092915050565b60008160e01c9050919050565b600060033d11156138e05760046000803e6138dd6000516138b4565b90505b90565b600060443d10613970576138f5612bcb565b60043d036004823e80513d602482011167ffffffffffffffff8211171561391d575050613970565b808201805167ffffffffffffffff81111561393b5750505050613970565b80602083010160043d038501811115613958575050505050613970565b61396782602001850186612ff3565b82955050505050505b90565b7f596f7520617265206e6f742077686974656c6973746564000000000000000000600082015250565b60006139a9601783612ca5565b91506139b482613973565b602082019050919050565b600060208201905081810360008301526139d88161399c565b9050919050565b7f4578636565646564206d6178696d756d2043727970746f20446576732073757060008201527f706c790000000000000000000000000000000000000000000000000000000000602082015250565b6000613a3b602383612ca5565b9150613a46826139df565b604082019050919050565b60006020820190508181036000830152613a6a81613a2e565b9050919050565b7f4552433732313a20696e76616c696420746f6b656e2049440000000000000000600082015250565b6000613aa7601883612ca5565b9150613ab282613a71565b602082019050919050565b60006020820190508181036000830152613ad681613a9a565b9050919050565b7f4552433732313a2061646472657373207a65726f206973206e6f74206120766160008201527f6c6964206f776e65720000000000000000000000000000000000000000000000602082015250565b6000613b39602983612ca5565b9150613b4482613add565b604082019050919050565b60006020820190508181036000830152613b6881613b2c565b9050919050565b600081905092915050565b6000613b8582612c9a565b613b8f8185613b6f565b9350613b9f818560208601612cb6565b80840191505092915050565b6000613bb78285613b7a565b9150613bc38284613b7a565b91508190509392505050565b7f4f776e61626c653a206e6577206f776e657220697320746865207a65726f206160008201527f6464726573730000000000000000000000000000000000000000000000000000602082015250565b6000613c2b602683612ca5565b9150613c3682613bcf565b604082019050919050565b60006020820190508181036000830152613c5a81613c1e565b9050919050565b7f4f776e61626c653a2063616c6c6572206973206e6f7420746865206f776e6572600082015250565b6000613c97602083612ca5565b9150613ca282613c61565b602082019050919050565b60006020820190508181036000830152613cc681613c8a565b9050919050565b60006060820190508181036000830152613ce78186612cf1565b9050613cf66020830185612ed0565b613d036040830184612de1565b949350505050565b7f4552433732313a207472616e736665722066726f6d20696e636f72726563742060008201527f6f776e6572000000000000000000000000000000000000000000000000000000602082015250565b6000613d67602583612ca5565b9150613d7282613d0b565b604082019050919050565b60006020820190508181036000830152613d9681613d5a565b9050919050565b7f4552433732313a207472616e7366657220746f20746865207a65726f2061646460008201527f7265737300000000000000000000000000000000000000000000000000000000602082015250565b6000613df9602483612ca5565b9150613e0482613d9d565b604082019050919050565b60006020820190508181036000830152613e2881613dec565b9050919050565b7f4552433732313a20617070726f766520746f2063616c6c657200000000000000600082015250565b6000613e65601983612ca5565b9150613e7082613e2f565b602082019050919050565b60006020820190508181036000830152613e9481613e58565b9050919050565b7f4552433732313a207472616e7366657220746f206e6f6e20455243373231526560008201527f63656976657220696d706c656d656e7465720000000000000000000000000000602082015250565b6000613ef7603283612ca5565b9150613f0282613e9b565b604082019050919050565b60006020820190508181036000830152613f2681613eea565b9050919050565b7f4e487b7100000000000000000000000000000000000000000000000000000000600052601260045260246000fd5b7f455243373231456e756d657261626c653a20636f6e736563757469766520747260008201527f616e7366657273206e6f7420737570706f727465640000000000000000000000602082015250565b6000613fb8603583612ca5565b9150613fc382613f5c565b604082019050919050565b60006020820190508181036000830152613fe781613fab565b9050919050565b600081519050919050565b600082825260208201905092915050565b600061401582613fee565b61401f8185613ff9565b935061402f818560208601612cb6565b61403881612ce0565b840191505092915050565b60006080820190506140586000830187612de1565b6140656020830186612de1565b6140726040830185612ed0565b8181036060830152614084818461400a565b905095945050505050565b60008151905061409e81612c0b565b92915050565b6000602082840312156140ba576140b9612bd5565b5b60006140c88482850161408f565b91505092915050565b7f4552433732313a206d696e7420746f20746865207a65726f2061646472657373600082015250565b6000614107602083612ca5565b9150614112826140d1565b602082019050919050565b60006020820190508181036000830152614136816140fa565b9050919050565b7f4552433732313a20746f6b656e20616c7265616479206d696e74656400000000600082015250565b6000614173601c83612ca5565b915061417e8261413d565b602082019050919050565b600060208201905081810360008301526141a281614166565b9050919050565b60006141b482612d4c565b91506141bf83612d4c565b92508282039050818111156141d7576141d66131b2565b5b92915050565b7f4e487b7100000000000000000000000000000000000000000000000000000000600052603160045260246000fd5b7f4e487b7100000000000000000000000000000000000000000000000000000000600052605160045260246000fdfe546865204e465420494420257320686173206265656e206d696e74656420746f202573a26469706673582212207ef4fcc2b56efaf74c4df8caf73ce4482cabc7f78521590e76bae43936b113cf64736f6c63430008180033",
  "linkReferences": {},
  "deployedLinkReferences": {}
}